{
  "contractName": "SwytchReceiptToken",
  "abi": [
    {
      "constant": true,
      "inputs": [],
      "name": "name",
      "outputs": [
        {
          "name": "",
          "type": "string"
        }
      ],
      "payable": false,
      "stateMutability": "view",
      "type": "function"
    },
    {
      "constant": false,
      "inputs": [
        {
          "name": "_spender",
          "type": "address"
        },
        {
          "name": "_value",
          "type": "uint256"
        }
      ],
      "name": "approve",
      "outputs": [
        {
          "name": "",
          "type": "bool"
        }
      ],
      "payable": false,
      "stateMutability": "nonpayable",
      "type": "function"
    },
    {
      "constant": true,
      "inputs": [],
      "name": "totalSupply",
      "outputs": [
        {
          "name": "",
          "type": "uint256"
        }
      ],
      "payable": false,
      "stateMutability": "view",
      "type": "function"
    },
    {
      "constant": true,
      "inputs": [],
      "name": "INITIAL_SUPPLY",
      "outputs": [
        {
          "name": "",
          "type": "uint256"
        }
      ],
      "payable": false,
      "stateMutability": "view",
      "type": "function"
    },
    {
      "constant": true,
      "inputs": [],
      "name": "decimals",
      "outputs": [
        {
          "name": "",
          "type": "uint8"
        }
      ],
      "payable": false,
      "stateMutability": "view",
      "type": "function"
    },
    {
      "constant": false,
      "inputs": [
        {
          "name": "_spender",
          "type": "address"
        },
        {
          "name": "_subtractedValue",
          "type": "uint256"
        }
      ],
      "name": "decreaseApproval",
      "outputs": [
        {
          "name": "",
          "type": "bool"
        }
      ],
      "payable": false,
      "stateMutability": "nonpayable",
      "type": "function"
    },
    {
      "constant": true,
      "inputs": [
        {
          "name": "_owner",
          "type": "address"
        }
      ],
      "name": "balanceOf",
      "outputs": [
        {
          "name": "balance",
          "type": "uint256"
        }
      ],
      "payable": false,
      "stateMutability": "view",
      "type": "function"
    },
    {
      "constant": true,
      "inputs": [],
      "name": "owner",
      "outputs": [
        {
          "name": "",
          "type": "address"
        }
      ],
      "payable": false,
      "stateMutability": "view",
      "type": "function"
    },
    {
      "constant": true,
      "inputs": [],
      "name": "symbol",
      "outputs": [
        {
          "name": "",
          "type": "string"
        }
      ],
      "payable": false,
      "stateMutability": "view",
      "type": "function"
    },
    {
      "constant": true,
      "inputs": [],
      "name": "transfersEnabled",
      "outputs": [
        {
          "name": "",
          "type": "bool"
        }
      ],
      "payable": false,
      "stateMutability": "view",
      "type": "function"
    },
    {
      "constant": false,
      "inputs": [
        {
          "name": "_spender",
          "type": "address"
        },
        {
          "name": "_addedValue",
          "type": "uint256"
        }
      ],
      "name": "increaseApproval",
      "outputs": [
        {
          "name": "",
          "type": "bool"
        }
      ],
      "payable": false,
      "stateMutability": "nonpayable",
      "type": "function"
    },
    {
      "constant": true,
      "inputs": [
        {
          "name": "_owner",
          "type": "address"
        },
        {
          "name": "_spender",
          "type": "address"
        }
      ],
      "name": "allowance",
      "outputs": [
        {
          "name": "",
          "type": "uint256"
        }
      ],
      "payable": false,
      "stateMutability": "view",
      "type": "function"
    },
    {
      "constant": false,
      "inputs": [
        {
          "name": "newOwner",
          "type": "address"
        }
      ],
      "name": "transferOwnership",
      "outputs": [],
      "payable": false,
      "stateMutability": "nonpayable",
      "type": "function"
    },
    {
      "inputs": [],
      "payable": false,
      "stateMutability": "nonpayable",
      "type": "constructor"
    },
    {
      "anonymous": false,
      "inputs": [
        {
          "indexed": true,
          "name": "owner",
          "type": "address"
        },
        {
          "indexed": true,
          "name": "spender",
          "type": "address"
        },
        {
          "indexed": false,
          "name": "value",
          "type": "uint256"
        }
      ],
      "name": "Approval",
      "type": "event"
    },
    {
      "anonymous": false,
      "inputs": [
        {
          "indexed": true,
          "name": "from",
          "type": "address"
        },
        {
          "indexed": true,
          "name": "to",
          "type": "address"
        },
        {
          "indexed": false,
          "name": "value",
          "type": "uint256"
        }
      ],
      "name": "Transfer",
      "type": "event"
    },
    {
      "anonymous": false,
      "inputs": [
        {
          "indexed": true,
          "name": "previousOwner",
          "type": "address"
        },
        {
          "indexed": true,
          "name": "newOwner",
          "type": "address"
        }
      ],
      "name": "OwnershipTransferred",
      "type": "event"
    },
    {
      "constant": false,
      "inputs": [
        {
          "name": "_to",
          "type": "address"
        },
        {
          "name": "_value",
          "type": "uint256"
        }
      ],
      "name": "transfer",
      "outputs": [
        {
          "name": "",
          "type": "bool"
        }
      ],
      "payable": false,
      "stateMutability": "nonpayable",
      "type": "function"
    },
    {
      "constant": false,
      "inputs": [
        {
          "name": "_from",
          "type": "address"
        },
        {
          "name": "_to",
          "type": "address"
        },
        {
          "name": "_value",
          "type": "uint256"
        }
      ],
      "name": "transferFrom",
      "outputs": [
        {
          "name": "",
          "type": "bool"
        }
      ],
      "payable": false,
      "stateMutability": "nonpayable",
      "type": "function"
    },
    {
      "constant": false,
      "inputs": [
        {
          "name": "_disable",
          "type": "bool"
        }
      ],
      "name": "disableTransfers",
      "outputs": [],
      "payable": false,
      "stateMutability": "nonpayable",
      "type": "function"
    }
  ],
  "bytecode": "0x60806040526004805460ff1916905534801561001a57600080fd5b5060008054600160a060020a03191633600160a060020a031690811782556a17a332df15b3c22168000060028190558183526001602090815260408085208390558051928352519293927fddf252ad1be2c89b69c2b068fc378daa952ba7f163c4a11628f55a4df523b3ef9281900390910190a3610a648061009d6000396000f3006080604052600436106100e55763ffffffff7c010000000000000000000000000000000000000000000000000000000060003504166306fdde0381146100ea578063095ea7b3146101745780631608f18f146101ac57806318160ddd146101c857806323b872dd146101ef5780632ff2e9dc14610219578063313ce5671461022e578063661884631461025957806370a082311461027d5780638da5cb5b1461029e57806395d89b41146102cf578063a9059cbb146102e4578063bef97c8714610308578063d73dd6231461031d578063dd62ed3e14610341578063f2fde38b14610368575b600080fd5b3480156100f657600080fd5b506100ff610389565b6040805160208082528351818301528351919283929083019185019080838360005b83811015610139578181015183820152602001610121565b50505050905090810190601f1680156101665780820380516001836020036101000a031916815260200191505b509250505060405180910390f35b34801561018057600080fd5b50610198600160a060020a03600435166024356103c0565b604080519115158252519081900360200190f35b3480156101b857600080fd5b506101c6600435151561042a565b005b3480156101d457600080fd5b506101dd610457565b60408051918252519081900360200190f35b3480156101fb57600080fd5b50610198600160a060020a036004358116906024351660443561045d565b34801561022557600080fd5b506101dd610481565b34801561023a57600080fd5b50610243610490565b6040805160ff9092168252519081900360200190f35b34801561026557600080fd5b50610198600160a060020a0360043516602435610495565b34801561028957600080fd5b506101dd600160a060020a036004351661058e565b3480156102aa57600080fd5b506102b36105a9565b60408051600160a060020a039092168252519081900360200190f35b3480156102db57600080fd5b506100ff6105b8565b3480156102f057600080fd5b50610198600160a060020a03600435166024356105ef565b34801561031457600080fd5b5061019861062c565b34801561032957600080fd5b50610198600160a060020a0360043516602435610635565b34801561034d57600080fd5b506101dd600160a060020a03600435811690602435166106d7565b34801561037457600080fd5b506101c6600160a060020a0360043516610702565b60408051808201909152601381527f526563656970742046726f6d2053777974636800000000000000000000000000602082015281565b600160a060020a03338116600081815260036020908152604080832094871680845294825280832086905580518681529051929493927f8c5be1e5ebec7d5bd14f71427d1e84f3dd0314c0f7b2291e5b200ac8c7c3b925929181900390910190a350600192915050565b60005433600160a060020a0390811691161461044557600080fd5b6004805460ff19169115919091179055565b60025490565b60045460009060ff16151561046e57fe5b61047984848461079a565b949350505050565b6a17a332df15b3c22168000081565b601281565b600160a060020a033381166000908152600360209081526040808320938616835292905290812054808311156104f257600160a060020a033381166000908152600360209081526040808320938816835292905290812055610529565b610502818463ffffffff61091c16565b600160a060020a033381166000908152600360209081526040808320938916835292905220555b600160a060020a0333811660008181526003602090815260408083209489168084529482529182902054825190815291517f8c5be1e5ebec7d5bd14f71427d1e84f3dd0314c0f7b2291e5b200ac8c7c3b9259281900390910190a35060019392505050565b600160a060020a031660009081526001602052604090205490565b600054600160a060020a031681565b60408051808201909152600381527f5246530000000000000000000000000000000000000000000000000000000000602082015281565b60045460009060ff16151561060057fe5b60005433600160a060020a0390811691161461061b57600080fd5b610625838361092e565b9392505050565b60045460ff1681565b600160a060020a03338116600090815260036020908152604080832093861683529290529081205461066d908363ffffffff610a2916565b600160a060020a0333811660008181526003602090815260408083209489168084529482529182902085905581519485529051929391927f8c5be1e5ebec7d5bd14f71427d1e84f3dd0314c0f7b2291e5b200ac8c7c3b9259281900390910190a350600192915050565b600160a060020a03918216600090815260036020908152604080832093909416825291909152205490565b60005433600160a060020a0390811691161461071d57600080fd5b600160a060020a038116151561073257600080fd5b60008054604051600160a060020a03808516939216917f8be0079c531659141344cd1fd0a4f28419497f9722a3daafe3b4186f6b6457e091a36000805473ffffffffffffffffffffffffffffffffffffffff1916600160a060020a0392909216919091179055565b6000600160a060020a03831615156107b157600080fd5b600160a060020a0384166000908152600160205260409020548211156107d657600080fd5b600160a060020a038085166000908152600360209081526040808320339094168352929052205482111561080957600080fd5b600160a060020a038416600090815260016020526040902054610832908363ffffffff61091c16565b600160a060020a038086166000908152600160205260408082209390935590851681522054610867908363ffffffff610a2916565b600160a060020a038085166000908152600160209081526040808320949094558783168252600381528382203390931682529190915220546108af908363ffffffff61091c16565b600160a060020a038086166000818152600360209081526040808320338616845282529182902094909455805186815290519287169391927fddf252ad1be2c89b69c2b068fc378daa952ba7f163c4a11628f55a4df523b3ef929181900390910190a35060019392505050565b60008282111561092857fe5b50900390565b6000600160a060020a038316151561094557600080fd5b600160a060020a03331660009081526001602052604090205482111561096a57600080fd5b600160a060020a033316600090815260016020526040902054610993908363ffffffff61091c16565b600160a060020a0333811660009081526001602052604080822093909355908516815220546109c8908363ffffffff610a2916565b600160a060020a038085166000818152600160209081526040918290209490945580518681529051919333909316927fddf252ad1be2c89b69c2b068fc378daa952ba7f163c4a11628f55a4df523b3ef92918290030190a350600192915050565b60008282018381101561062557fe00a165627a7a72305820017d42e8a0760e3c23a5cbbbc7576ab3614643f9303f03ac54f246727e26ec440029",
  "source": "pragma solidity ^0.4.21;\n\nimport \"zeppelin-solidity/contracts/ownership/Ownable.sol\";\nimport \"zeppelin-solidity/contracts/token/ERC20/StandardToken.sol\";\n\n\ncontract SwytchReceiptToken is Ownable, StandardToken {\n\n    string public constant name = \"Receipt From Swytch\"; // solium-disable-line uppercase\n    string public constant symbol = \"RFS\"; // solium-disable-line uppercase\n    uint8 public constant decimals = 18; // solium-disable-line uppercase\n\n    uint256 public constant INITIAL_SUPPLY = 28575978 * (10 ** uint256(decimals));\n\n    bool public transfersEnabled = false;\n\n    // allows execution only when transfers aren't disabled\n    modifier transfersAllowed {\n        assert(transfersEnabled);\n        _;\n    }\n\n    /**\n       * @dev Constructor that gives msg.sender all of existing tokens.\n     */\n    function SwytchReceiptToken() public {\n        totalSupply_ = INITIAL_SUPPLY;\n        balances[msg.sender] = INITIAL_SUPPLY;\n        emit Transfer(0x0, msg.sender, INITIAL_SUPPLY);\n    }\n\n    function transfer(address _to, uint256 _value) public transfersAllowed onlyOwner returns (bool) {\n        return super.transfer(_to, _value);\n    }\n\n    function transferFrom(address _from, address _to, uint256 _value) public transfersAllowed returns (bool) {\n        return super.transferFrom(_from, _to, _value);\n    }\n\n    function disableTransfers(bool _disable) public onlyOwner {\n        transfersEnabled = !_disable;\n    }\n}\n\n",
  "sourcePath": "/Users/ghostmac/WebstormProjects/swytch/swytch-token-receipt/contracts/SwytchReceiptToken.sol",
  "compiler": {
    "name": "solc",
    "version": "0.4.23+commit.124ca40d.Emscripten.clang"
  },
  "schemaVersion": "2.0.0",
  "updatedAt": "2018-05-01T13:46:42.750Z"
}